{
  "contractName": "Crowdsale",
  "abi": [
    {
      "inputs": [
        {
          "internalType": "address payable",
          "name": "_fundingWallet",
          "type": "address"
        },
        {
          "internalType": "address",
          "name": "_tokenAddress",
          "type": "address"
        },
        {
          "internalType": "address",
          "name": "_usdtAddress",
          "type": "address"
        }
      ],
      "stateMutability": "nonpayable",
      "type": "constructor"
    },
    {
      "anonymous": false,
      "inputs": [
        {
          "indexed": true,
          "internalType": "address",
          "name": "previousOwner",
          "type": "address"
        },
        {
          "indexed": true,
          "internalType": "address",
          "name": "newOwner",
          "type": "address"
        }
      ],
      "name": "OwnershipTransferred",
      "type": "event"
    },
    {
      "inputs": [],
      "name": "cliffTime",
      "outputs": [
        {
          "internalType": "uint256",
          "name": "",
          "type": "uint256"
        }
      ],
      "stateMutability": "view",
      "type": "function"
    },
    {
      "inputs": [],
      "name": "closeCrowdsale",
      "outputs": [
        {
          "internalType": "uint256",
          "name": "",
          "type": "uint256"
        }
      ],
      "stateMutability": "view",
      "type": "function"
    },
    {
      "inputs": [],
      "name": "crowdsaleAmount",
      "outputs": [
        {
          "internalType": "uint256",
          "name": "",
          "type": "uint256"
        }
      ],
      "stateMutability": "view",
      "type": "function"
    },
    {
      "inputs": [],
      "name": "decimals",
      "outputs": [
        {
          "internalType": "uint256",
          "name": "",
          "type": "uint256"
        }
      ],
      "stateMutability": "view",
      "type": "function"
    },
    {
      "inputs": [
        {
          "internalType": "address",
          "name": "",
          "type": "address"
        }
      ],
      "name": "investorInfor",
      "outputs": [
        {
          "internalType": "uint256",
          "name": "totalDeposit",
          "type": "uint256"
        },
        {
          "internalType": "uint256",
          "name": "totalClaim",
          "type": "uint256"
        },
        {
          "internalType": "uint256",
          "name": "totalClaimed",
          "type": "uint256"
        }
      ],
      "stateMutability": "view",
      "type": "function"
    },
    {
      "inputs": [
        {
          "internalType": "address",
          "name": "",
          "type": "address"
        }
      ],
      "name": "isInvestor",
      "outputs": [
        {
          "internalType": "bool",
          "name": "",
          "type": "bool"
        }
      ],
      "stateMutability": "view",
      "type": "function"
    },
    {
      "inputs": [],
      "name": "maxDeposit",
      "outputs": [
        {
          "internalType": "uint256",
          "name": "",
          "type": "uint256"
        }
      ],
      "stateMutability": "view",
      "type": "function"
    },
    {
      "inputs": [],
      "name": "minDeposit",
      "outputs": [
        {
          "internalType": "uint256",
          "name": "",
          "type": "uint256"
        }
      ],
      "stateMutability": "view",
      "type": "function"
    },
    {
      "inputs": [],
      "name": "openCrowdsale",
      "outputs": [
        {
          "internalType": "uint256",
          "name": "",
          "type": "uint256"
        }
      ],
      "stateMutability": "view",
      "type": "function"
    },
    {
      "inputs": [],
      "name": "owner",
      "outputs": [
        {
          "internalType": "address",
          "name": "",
          "type": "address"
        }
      ],
      "stateMutability": "view",
      "type": "function"
    },
    {
      "inputs": [
        {
          "internalType": "enum Crowdsale.VestingStages",
          "name": "",
          "type": "uint8"
        }
      ],
      "name": "releaseDatePerStage",
      "outputs": [
        {
          "internalType": "uint256",
          "name": "",
          "type": "uint256"
        }
      ],
      "stateMutability": "view",
      "type": "function"
    },
    {
      "inputs": [],
      "name": "releaseTime",
      "outputs": [
        {
          "internalType": "uint256",
          "name": "",
          "type": "uint256"
        }
      ],
      "stateMutability": "view",
      "type": "function"
    },
    {
      "inputs": [],
      "name": "renounceOwnership",
      "outputs": [],
      "stateMutability": "nonpayable",
      "type": "function"
    },
    {
      "inputs": [],
      "name": "tokenPrice",
      "outputs": [
        {
          "internalType": "uint256",
          "name": "",
          "type": "uint256"
        }
      ],
      "stateMutability": "view",
      "type": "function"
    },
    {
      "inputs": [],
      "name": "tokenRemaining",
      "outputs": [
        {
          "internalType": "uint256",
          "name": "",
          "type": "uint256"
        }
      ],
      "stateMutability": "view",
      "type": "function"
    },
    {
      "inputs": [
        {
          "internalType": "address",
          "name": "newOwner",
          "type": "address"
        }
      ],
      "name": "transferOwnership",
      "outputs": [],
      "stateMutability": "nonpayable",
      "type": "function"
    },
    {
      "inputs": [
        {
          "internalType": "enum Crowdsale.VestingStages",
          "name": "",
          "type": "uint8"
        }
      ],
      "name": "unlockPercentTokenPerStage",
      "outputs": [
        {
          "internalType": "uint256",
          "name": "",
          "type": "uint256"
        }
      ],
      "stateMutability": "view",
      "type": "function"
    },
    {
      "inputs": [
        {
          "internalType": "address",
          "name": "_tokenAddress",
          "type": "address"
        }
      ],
      "name": "setTokenAddress",
      "outputs": [],
      "stateMutability": "nonpayable",
      "type": "function"
    },
    {
      "inputs": [
        {
          "internalType": "address payable",
          "name": "_fundingWallet",
          "type": "address"
        }
      ],
      "name": "setFundingWallet",
      "outputs": [],
      "stateMutability": "nonpayable",
      "type": "function"
    },
    {
      "inputs": [
        {
          "internalType": "address[]",
          "name": "_addressArr",
          "type": "address[]"
        }
      ],
      "name": "addInvestors",
      "outputs": [],
      "stateMutability": "nonpayable",
      "type": "function"
    },
    {
      "inputs": [
        {
          "internalType": "address",
          "name": "_addressInvestor",
          "type": "address"
        }
      ],
      "name": "removeInvestors",
      "outputs": [],
      "stateMutability": "nonpayable",
      "type": "function"
    },
    {
      "inputs": [
        {
          "internalType": "uint256",
          "name": "amountUSDT",
          "type": "uint256"
        }
      ],
      "name": "depositUSDT",
      "outputs": [],
      "stateMutability": "nonpayable",
      "type": "function"
    },
    {
      "inputs": [
        {
          "internalType": "uint256",
          "name": "_pointTimestamp",
          "type": "uint256"
        }
      ],
      "name": "isOpenCrowdsale",
      "outputs": [
        {
          "internalType": "bool",
          "name": "",
          "type": "bool"
        }
      ],
      "stateMutability": "view",
      "type": "function"
    },
    {
      "inputs": [],
      "name": "claimTokens",
      "outputs": [],
      "stateMutability": "nonpayable",
      "type": "function"
    },
    {
      "inputs": [
        {
          "internalType": "uint256",
          "name": "_pointTimestamp",
          "type": "uint256"
        }
      ],
      "name": "isOpenClaimingProcess",
      "outputs": [
        {
          "internalType": "bool",
          "name": "",
          "type": "bool"
        }
      ],
      "stateMutability": "view",
      "type": "function"
    },
    {
      "inputs": [
        {
          "internalType": "address",
          "name": "_addressInvestor",
          "type": "address"
        }
      ],
      "name": "calculateTokenCanClaim",
      "outputs": [
        {
          "internalType": "uint256",
          "name": "",
          "type": "uint256"
        }
      ],
      "stateMutability": "view",
      "type": "function"
    },
    {
      "inputs": [],
      "name": "getVestingStageIndex",
      "outputs": [
        {
          "internalType": "uint256",
          "name": "",
          "type": "uint256"
        }
      ],
      "stateMutability": "view",
      "type": "function"
    },
    {
      "inputs": [
        {
          "internalType": "address",
          "name": "_addressInvestor",
          "type": "address"
        }
      ],
      "name": "getTotalDeposit",
      "outputs": [
        {
          "internalType": "uint256",
          "name": "",
          "type": "uint256"
        }
      ],
      "stateMutability": "view",
      "type": "function"
    },
    {
      "inputs": [
        {
          "internalType": "address",
          "name": "_addressInvestor",
          "type": "address"
        }
      ],
      "name": "getTotalClaim",
      "outputs": [
        {
          "internalType": "uint256",
          "name": "",
          "type": "uint256"
        }
      ],
      "stateMutability": "view",
      "type": "function"
    },
    {
      "inputs": [
        {
          "internalType": "address",
          "name": "_addressInvestor",
          "type": "address"
        }
      ],
      "name": "getTotalClaimed",
      "outputs": [
        {
          "internalType": "uint256",
          "name": "",
          "type": "uint256"
        }
      ],
      "stateMutability": "view",
      "type": "function"
    },
    {
      "inputs": [
        {
          "internalType": "address",
          "name": "_addressInvestor",
          "type": "address"
        }
      ],
      "name": "getRemainingToken",
      "outputs": [
        {
          "internalType": "uint256",
          "name": "",
          "type": "uint256"
        }
      ],
      "stateMutability": "view",
      "type": "function"
    },
    {
      "inputs": [
        {
          "internalType": "uint256",
          "name": "_openCrowdsale",
          "type": "uint256"
        },
        {
          "internalType": "uint256",
          "name": "_closeCrowdsale",
          "type": "uint256"
        }
      ],
      "name": "_setTimedCrowdsale",
      "outputs": [],
      "stateMutability": "nonpayable",
      "type": "function"
    },
    {
      "inputs": [
        {
          "internalType": "uint256",
          "name": "_releaseTime",
          "type": "uint256"
        }
      ],
      "name": "_setReleaseTime",
      "outputs": [],
      "stateMutability": "nonpayable",
      "type": "function"
    }
  ],
  "bytecode": "0x60806040526a295be96e6406697200000060065560006007553480156200002557600080fd5b5060405162002cf938038062002cf983398181016040528101906200004b9190620006a9565b6200006b6200005f6200014760201b60201c565b6200014f60201b60201c565b82600160006101000a81548173ffffffffffffffffffffffffffffffffffffffff021916908373ffffffffffffffffffffffffffffffffffffffff16021790555081600260006101000a81548173ffffffffffffffffffffffffffffffffffffffff021916908373ffffffffffffffffffffffffffffffffffffffff16021790555080600360006101000a81548173ffffffffffffffffffffffffffffffffffffffff021916908373ffffffffffffffffffffffffffffffffffffffff1602179055506200013e6200021360201b60201c565b505050620008ae565b600033905090565b60008060009054906101000a900473ffffffffffffffffffffffffffffffffffffffff169050816000806101000a81548173ffffffffffffffffffffffffffffffffffffffff021916908373ffffffffffffffffffffffffffffffffffffffff1602179055508173ffffffffffffffffffffffffffffffffffffffff168173ffffffffffffffffffffffffffffffffffffffff167f8be0079c531659141344cd1fd0a4f28419497f9722a3daafe3b4186f6b6457e060405160405180910390a35050565b620002236200054060201b60201c565b6000600a5490506014600b600080600481111562000246576200024562000705565b5b60048111156200025b576200025a62000705565b5b8152602001908152602001600020819055506028600b6000600160048111156200028a576200028962000705565b5b60048111156200029f576200029e62000705565b5b815260200190815260200160002081905550603c600b600060026004811115620002ce57620002cd62000705565b5b6004811115620002e357620002e262000705565b5b8152602001908152602001600020819055506050600b60006003600481111562000312576200031162000705565b5b600481111562000327576200032662000705565b5b8152602001908152602001600020819055506064600b600060048081111562000355576200035462000705565b5b60048111156200036a576200036962000705565b5b81526020019081526020016000208190555080600b600080600481111562000397576200039662000705565b5b6004811115620003ac57620003ab62000705565b5b8152602001908152602001600020819055506001610258620003cf91906200076d565b81620003dc9190620007ce565b600b600060016004811115620003f757620003f662000705565b5b60048111156200040c576200040b62000705565b5b81526020019081526020016000208190555060026102586200042f91906200076d565b816200043c9190620007ce565b600b60006002600481111562000457576200045662000705565b5b60048111156200046c576200046b62000705565b5b81526020019081526020016000208190555060036102586200048f91906200076d565b816200049c9190620007ce565b600b600060036004811115620004b757620004b662000705565b5b6004811115620004cc57620004cb62000705565b5b8152602001908152602001600020819055506004610258620004ef91906200076d565b81620004fc9190620007ce565b600b600060048081111562000516576200051562000705565b5b60048111156200052b576200052a62000705565b5b81526020019081526020016000208190555050565b620005506200014760201b60201c565b73ffffffffffffffffffffffffffffffffffffffff1662000576620005d160201b60201c565b73ffffffffffffffffffffffffffffffffffffffff1614620005cf576040517f08c379a0000000000000000000000000000000000000000000000000000000008152600401620005c6906200088c565b60405180910390fd5b565b60008060009054906101000a900473ffffffffffffffffffffffffffffffffffffffff16905090565b600080fd5b600073ffffffffffffffffffffffffffffffffffffffff82169050919050565b60006200062c82620005ff565b9050919050565b6200063e816200061f565b81146200064a57600080fd5b50565b6000815190506200065e8162000633565b92915050565b60006200067182620005ff565b9050919050565b620006838162000664565b81146200068f57600080fd5b50565b600081519050620006a38162000678565b92915050565b600080600060608486031215620006c557620006c4620005fa565b5b6000620006d5868287016200064d565b9350506020620006e88682870162000692565b9250506040620006fb8682870162000692565b9150509250925092565b7f4e487b7100000000000000000000000000000000000000000000000000000000600052602160045260246000fd5b6000819050919050565b7f4e487b7100000000000000000000000000000000000000000000000000000000600052601160045260246000fd5b60006200077a8262000734565b9150620007878362000734565b9250817fffffffffffffffffffffffffffffffffffffffffffffffffffffffffffffffff0483118215151615620007c357620007c26200073e565b5b828202905092915050565b6000620007db8262000734565b9150620007e88362000734565b9250827fffffffffffffffffffffffffffffffffffffffffffffffffffffffffffffffff0382111562000820576200081f6200073e565b5b828201905092915050565b600082825260208201905092915050565b7f4f776e61626c653a2063616c6c6572206973206e6f7420746865206f776e6572600082015250565b6000620008746020836200082b565b915062000881826200083c565b602082019050919050565b60006020820190508181036000830152620008a78162000865565b9050919050565b61243b80620008be6000396000f3fe608060405234801561001057600080fd5b50600436106101fb5760003560e01c806368646cf01161011a578063983c0a01116100ad578063e5e3b1871161007c578063e5e3b187146105b6578063e7c80f17146105e6578063f1a6f2a814610602578063f2fde38b14610620578063fc4bc12e1461063c576101fb565b8063983c0a011461051a578063b91d400114610538578063ce8d1c4114610556578063cee2a9cf14610586576101fb565b8063857184d1116100e9578063857184d11461048057806385a0dca4146104b05780638da5cb5b146104e05780639819d24e146104fe576101fb565b806368646cf01461040a578063715018a61461042857806372b42026146104325780637ff9b59614610462576101fb565b8063277b7d431161019257806341b3d1851161016157806341b3d1851461039457806348c54b9d146103b2578063522bf1d4146103bc5780636083e59a146103ec576101fb565b8063277b7d431461030c57806328ef6f401461032857806329f35eff14610346578063313ce56714610376576101fb565b80631c19f1d3116101ce5780631c19f1d31461027457806321ff80891461029057806322ac2fb2146102c057806326a4e8d2146102f0576101fb565b80630209b0b1146102005780630f1a64441461021c5780630fe624551461023a57806310eb70a414610258575b600080fd5b61021a60048036038101906102159190611895565b61066e565b005b6102246106d1565b60405161023191906118db565b60405180910390f35b6102426106d7565b60405161024f91906118db565b60405180910390f35b610272600480360381019061026d9190611922565b6107cb565b005b61028e6004803603810190610289919061194f565b6107f3565b005b6102aa60048036038101906102a59190611895565b610819565b6040516102b791906118db565b60405180910390f35b6102da60048036038101906102d59190611922565b61087d565b6040516102e791906119aa565b60405180910390f35b61030a60048036038101906103059190611895565b61088b565b005b61032660048036038101906103219190611b1e565b6108d7565b005b61033061097a565b60405161033d91906118db565b60405180910390f35b610360600480360381019061035b9190611b8c565b610980565b60405161036d91906118db565b60405180910390f35b61037e610998565b60405161038b91906118db565b60405180910390f35b61039c61099d565b6040516103a991906118db565b60405180910390f35b6103ba6109aa565b005b6103d660048036038101906103d19190611895565b610bdf565b6040516103e391906118db565b60405180910390f35b6103f4610c2b565b60405161040191906118db565b60405180910390f35b610412610c38565b60405161041f91906118db565b60405180910390f35b610430610c3e565b005b61044c60048036038101906104479190611895565b610c52565b60405161045991906118db565b60405180910390f35b61046a610c9e565b60405161047791906118db565b60405180910390f35b61049a60048036038101906104959190611895565b610ca9565b6040516104a791906118db565b60405180910390f35b6104ca60048036038101906104c59190611922565b610cf5565b6040516104d791906119aa565b60405180910390f35b6104e8610d10565b6040516104f59190611bc8565b60405180910390f35b61051860048036038101906105139190611c21565b610d39565b005b610522610d85565b60405161052f91906118db565b60405180910390f35b610540610d8b565b60405161054d91906118db565b60405180910390f35b610570600480360381019061056b9190611b8c565b610d91565b60405161057d91906118db565b60405180910390f35b6105a0600480360381019061059b9190611895565b610da9565b6040516105ad91906119aa565b60405180910390f35b6105d060048036038101906105cb9190611895565b610dc9565b6040516105dd91906118db565b60405180910390f35b61060060048036038101906105fb9190611922565b610e62565b005b61060a611242565b60405161061791906118db565b60405180910390f35b61063a60048036038101906106359190611895565b611251565b005b61065660048036038101906106519190611895565b6112d4565b60405161066593929190611c4e565b60405180910390f35b6106766112fe565b6000600460008373ffffffffffffffffffffffffffffffffffffffff1673ffffffffffffffffffffffffffffffffffffffff16815260200190815260200160002060006101000a81548160ff02191690831515021790555050565b61025881565b600080429050600c60008060048111156106f4576106f3611c85565b5b600481111561070657610705611c85565b5b600481111561071857610717611c85565b5b8152602001908152602001600020548110156107385760649150506107c8565b6000600190505b600481116107c157600c600082600481111561075e5761075d611c85565b5b60048111156107705761076f611c85565b5b600481111561078257610781611c85565b5b8152602001908152602001600020548210156107ae576001816107a59190611ce3565b925050506107c8565b80806107b990611d17565b91505061073f565b5060049150505b90565b6107d36112fe565b80600954106107e157600080fd5b80600a819055506107f061137c565b50565b6107fb6112fe565b80821061080757600080fd5b81600881905550806009819055505050565b60008061082583611655565b9050600560008473ffffffffffffffffffffffffffffffffffffffff1673ffffffffffffffffffffffffffffffffffffffff16815260200190815260200160002060020154816108759190611ce3565b915050919050565b6000600a5482119050919050565b6108936112fe565b80600260006101000a81548173ffffffffffffffffffffffffffffffffffffffff021916908373ffffffffffffffffffffffffffffffffffffffff16021790555050565b6108df6112fe565b60005b8151811015610976576000828281518110610900576108ff611d5f565b5b602002602001015190506001600460008373ffffffffffffffffffffffffffffffffffffffff1673ffffffffffffffffffffffffffffffffffffffff16815260200190815260200160002060006101000a81548160ff02191690831515021790555050808061096e90611d17565b9150506108e2565b5050565b60085481565b600c6020528060005260406000206000915090505481565b601281565b68056bc75e2d6310000081565b60004290506109b88161087d565b6109f7576040517f08c379a00000000000000000000000000000000000000000000000000000000081526004016109ee90611deb565b60405180910390fd5b600460003373ffffffffffffffffffffffffffffffffffffffff1673ffffffffffffffffffffffffffffffffffffffff16815260200190815260200160002060009054906101000a900460ff16610a83576040517f08c379a0000000000000000000000000000000000000000000000000000000008152600401610a7a90611e57565b60405180910390fd5b6000610a8e33610819565b905060008111610ad3576040517f08c379a0000000000000000000000000000000000000000000000000000000008152600401610aca90611ec3565b60405180910390fd5b80600560003373ffffffffffffffffffffffffffffffffffffffff1673ffffffffffffffffffffffffffffffffffffffff1681526020019081526020016000206002016000828254610b259190611ee3565b925050819055506000600260009054906101000a900473ffffffffffffffffffffffffffffffffffffffff1673ffffffffffffffffffffffffffffffffffffffff1663a9059cbb33846040518363ffffffff1660e01b8152600401610b8b929190611f39565b6020604051808303816000875af1158015610baa573d6000803e3d6000fd5b505050506040513d601f19601f82011682018060405250810190610bce9190611f8e565b905080610bda57600080fd5b505050565b6000600560008373ffffffffffffffffffffffffffffffffffffffff1673ffffffffffffffffffffffffffffffffffffffff168152602001908152602001600020600201549050919050565b681b1ae4d6e2ef50000081565b60065481565b610c466112fe565b610c50600061172b565b565b6000600560008373ffffffffffffffffffffffffffffffffffffffff1673ffffffffffffffffffffffffffffffffffffffff168152602001908152602001600020600101549050919050565b662386f26fc1000081565b6000600560008373ffffffffffffffffffffffffffffffffffffffff1673ffffffffffffffffffffffffffffffffffffffff168152602001908152602001600020600001549050919050565b600060085482118015610d09575060095482105b9050919050565b60008060009054906101000a900473ffffffffffffffffffffffffffffffffffffffff16905090565b610d416112fe565b80600160006101000a81548173ffffffffffffffffffffffffffffffffffffffff021916908373ffffffffffffffffffffffffffffffffffffffff16021790555050565b60095481565b600a5481565b600b6020528060005260406000206000915090505481565b60046020528060005260406000206000915054906101000a900460ff1681565b6000600560008373ffffffffffffffffffffffffffffffffffffffff1673ffffffffffffffffffffffffffffffffffffffff16815260200190815260200160002060020154600560008473ffffffffffffffffffffffffffffffffffffffff1673ffffffffffffffffffffffffffffffffffffffff16815260200190815260200160002060010154610e5b9190611ce3565b9050919050565b6000429050610e7081610cf5565b610eaf576040517f08c379a0000000000000000000000000000000000000000000000000000000008152600401610ea690611deb565b60405180910390fd5b600460003373ffffffffffffffffffffffffffffffffffffffff1673ffffffffffffffffffffffffffffffffffffffff16815260200190815260200160002060009054906101000a900460ff16610f3b576040517f08c379a0000000000000000000000000000000000000000000000000000000008152600401610f3290611e57565b60405180910390fd5b68056bc75e2d63100000821015610f87576040517f08c379a0000000000000000000000000000000000000000000000000000000008152600401610f7e9061202d565b60405180910390fd5b681b1ae4d6e2ef500000821115610fd3576040517f08c379a0000000000000000000000000000000000000000000000000000000008152600401610fca906120bf565b60405180910390fd5b6000611009670de0b6b3a7640000610ffb662386f26fc10000866117ef90919063ffffffff16565b61180590919063ffffffff16565b9050600654811115611050576040517f08c379a00000000000000000000000000000000000000000000000000000000081526004016110479061212b565b60405180910390fd5b82600560003373ffffffffffffffffffffffffffffffffffffffff1673ffffffffffffffffffffffffffffffffffffffff16815260200190815260200160002060000160008282546110a29190611ee3565b9250508190555080600560003373ffffffffffffffffffffffffffffffffffffffff1673ffffffffffffffffffffffffffffffffffffffff16815260200190815260200160002060010160008282546110fb9190611ee3565b9250508190555080600660008282546111149190611ce3565b92505081905550826007600082825461112d9190611ee3565b925050819055506000600360009054906101000a900473ffffffffffffffffffffffffffffffffffffffff1673ffffffffffffffffffffffffffffffffffffffff166323b872dd33600160009054906101000a900473ffffffffffffffffffffffffffffffffffffffff16876040518463ffffffff1660e01b81526004016111b7939291906121aa565b6020604051808303816000875af11580156111d6573d6000803e3d6000fd5b505050506040513d601f19601f820116820180604052508101906111fa9190611f8e565b90508061123c576040517f08c379a00000000000000000000000000000000000000000000000000000000081526004016112339061222d565b60405180910390fd5b50505050565b6a295be96e6406697200000081565b6112596112fe565b600073ffffffffffffffffffffffffffffffffffffffff168173ffffffffffffffffffffffffffffffffffffffff16036112c8576040517f08c379a00000000000000000000000000000000000000000000000000000000081526004016112bf906122bf565b60405180910390fd5b6112d18161172b565b50565b60056020528060005260406000206000915090508060000154908060010154908060020154905083565b61130661181b565b73ffffffffffffffffffffffffffffffffffffffff16611324610d10565b73ffffffffffffffffffffffffffffffffffffffff161461137a576040517f08c379a00000000000000000000000000000000000000000000000000000000081526004016113719061232b565b60405180910390fd5b565b6113846112fe565b6000600a5490506014600b60008060048111156113a4576113a3611c85565b5b60048111156113b6576113b5611c85565b5b8152602001908152602001600020819055506028600b6000600160048111156113e2576113e1611c85565b5b60048111156113f4576113f3611c85565b5b815260200190815260200160002081905550603c600b6000600260048111156114205761141f611c85565b5b600481111561143257611431611c85565b5b8152602001908152602001600020819055506050600b60006003600481111561145e5761145d611c85565b5b60048111156114705761146f611c85565b5b8152602001908152602001600020819055506064600b600060048081111561149b5761149a611c85565b5b60048111156114ad576114ac611c85565b5b81526020019081526020016000208190555080600b60008060048111156114d7576114d6611c85565b5b60048111156114e9576114e8611c85565b5b815260200190815260200160002081905550600161025861150a919061234b565b816115159190611ee3565b600b60006001600481111561152d5761152c611c85565b5b600481111561153f5761153e611c85565b5b8152602001908152602001600020819055506002610258611560919061234b565b8161156b9190611ee3565b600b60006002600481111561158357611582611c85565b5b600481111561159557611594611c85565b5b81526020019081526020016000208190555060036102586115b6919061234b565b816115c19190611ee3565b600b6000600360048111156115d9576115d8611c85565b5b60048111156115eb576115ea611c85565b5b815260200190815260200160002081905550600461025861160c919061234b565b816116179190611ee3565b600b600060048081111561162e5761162d611c85565b5b60048111156116405761163f611c85565b5b81526020019081526020016000208190555050565b6000806116606106d7565b9050606481146117205761171b606461170d600b600085600481111561168957611688611c85565b5b600481111561169b5761169a611c85565b5b60048111156116ad576116ac611c85565b5b815260200190815260200160002054600560008873ffffffffffffffffffffffffffffffffffffffff1673ffffffffffffffffffffffffffffffffffffffff1681526020019081526020016000206001015461180590919063ffffffff16565b6117ef90919063ffffffff16565b611723565b60005b915050919050565b60008060009054906101000a900473ffffffffffffffffffffffffffffffffffffffff169050816000806101000a81548173ffffffffffffffffffffffffffffffffffffffff021916908373ffffffffffffffffffffffffffffffffffffffff1602179055508173ffffffffffffffffffffffffffffffffffffffff168173ffffffffffffffffffffffffffffffffffffffff167f8be0079c531659141344cd1fd0a4f28419497f9722a3daafe3b4186f6b6457e060405160405180910390a35050565b600081836117fd91906123d4565b905092915050565b60008183611813919061234b565b905092915050565b600033905090565b6000604051905090565b600080fd5b600080fd5b600073ffffffffffffffffffffffffffffffffffffffff82169050919050565b600061186282611837565b9050919050565b61187281611857565b811461187d57600080fd5b50565b60008135905061188f81611869565b92915050565b6000602082840312156118ab576118aa61182d565b5b60006118b984828501611880565b91505092915050565b6000819050919050565b6118d5816118c2565b82525050565b60006020820190506118f060008301846118cc565b92915050565b6118ff816118c2565b811461190a57600080fd5b50565b60008135905061191c816118f6565b92915050565b6000602082840312156119385761193761182d565b5b60006119468482850161190d565b91505092915050565b600080604083850312156119665761196561182d565b5b60006119748582860161190d565b92505060206119858582860161190d565b9150509250929050565b60008115159050919050565b6119a48161198f565b82525050565b60006020820190506119bf600083018461199b565b92915050565b600080fd5b6000601f19601f8301169050919050565b7f4e487b7100000000000000000000000000000000000000000000000000000000600052604160045260246000fd5b611a13826119ca565b810181811067ffffffffffffffff82111715611a3257611a316119db565b5b80604052505050565b6000611a45611823565b9050611a518282611a0a565b919050565b600067ffffffffffffffff821115611a7157611a706119db565b5b602082029050602081019050919050565b600080fd5b6000611a9a611a9584611a56565b611a3b565b90508083825260208201905060208402830185811115611abd57611abc611a82565b5b835b81811015611ae65780611ad28882611880565b845260208401935050602081019050611abf565b5050509392505050565b600082601f830112611b0557611b046119c5565b5b8135611b15848260208601611a87565b91505092915050565b600060208284031215611b3457611b3361182d565b5b600082013567ffffffffffffffff811115611b5257611b51611832565b5b611b5e84828501611af0565b91505092915050565b60058110611b7457600080fd5b50565b600081359050611b8681611b67565b92915050565b600060208284031215611ba257611ba161182d565b5b6000611bb084828501611b77565b91505092915050565b611bc281611857565b82525050565b6000602082019050611bdd6000830184611bb9565b92915050565b6000611bee82611837565b9050919050565b611bfe81611be3565b8114611c0957600080fd5b50565b600081359050611c1b81611bf5565b92915050565b600060208284031215611c3757611c3661182d565b5b6000611c4584828501611c0c565b91505092915050565b6000606082019050611c6360008301866118cc565b611c7060208301856118cc565b611c7d60408301846118cc565b949350505050565b7f4e487b7100000000000000000000000000000000000000000000000000000000600052602160045260246000fd5b7f4e487b7100000000000000000000000000000000000000000000000000000000600052601160045260246000fd5b6000611cee826118c2565b9150611cf9836118c2565b925082821015611d0c57611d0b611cb4565b5b828203905092915050565b6000611d22826118c2565b91507fffffffffffffffffffffffffffffffffffffffffffffffffffffffffffffffff8203611d5457611d53611cb4565b5b600182019050919050565b7f4e487b7100000000000000000000000000000000000000000000000000000000600052603260045260246000fd5b600082825260208201905092915050565b7f43726f776473616c6520646f6573206e6f74206f70656e2e0000000000000000600082015250565b6000611dd5601883611d8e565b9150611de082611d9f565b602082019050919050565b60006020820190508181036000830152611e0481611dc8565b9050919050565b7f496e76616c696420496e766573746f7200000000000000000000000000000000600082015250565b6000611e41601083611d8e565b9150611e4c82611e0b565b602082019050919050565b60006020820190508181036000830152611e7081611e34565b9050919050565b7f5468657265206973206e6f20546f6b656e730000000000000000000000000000600082015250565b6000611ead601283611d8e565b9150611eb882611e77565b602082019050919050565b60006020820190508181036000830152611edc81611ea0565b9050919050565b6000611eee826118c2565b9150611ef9836118c2565b9250827fffffffffffffffffffffffffffffffffffffffffffffffffffffffffffffffff03821115611f2e57611f2d611cb4565b5b828201905092915050565b6000604082019050611f4e6000830185611bb9565b611f5b60208301846118cc565b9392505050565b611f6b8161198f565b8114611f7657600080fd5b50565b600081519050611f8881611f62565b92915050565b600060208284031215611fa457611fa361182d565b5b6000611fb284828501611f79565b91505092915050565b7f596f75722076616c7565206465706f73697420697320736d616c6c657220746860008201527f616e206d696e696d756d206465706f7369740000000000000000000000000000602082015250565b6000612017603283611d8e565b915061202282611fbb565b604082019050919050565b600060208201905081810360008301526120468161200a565b9050919050565b7f596f75722076616c7565206465706f736974206973206772656174657220746860008201527f616e206d6178696d756e206465706f7369740000000000000000000000000000602082015250565b60006120a9603283611d8e565b91506120b48261204d565b604082019050919050565b600060208201905081810360008301526120d88161209c565b9050919050565b7f4e6f7420656e6f75676820546f6b656e20666f72206465706f736974696e6700600082015250565b6000612115601f83611d8e565b9150612120826120df565b602082019050919050565b6000602082019050818103600083015261214481612108565b9050919050565b6000819050919050565b600061217061216b61216684611837565b61214b565b611837565b9050919050565b600061218282612155565b9050919050565b600061219482612177565b9050919050565b6121a481612189565b82525050565b60006060820190506121bf6000830186611bb9565b6121cc602083018561219b565b6121d960408301846118cc565b949350505050565b7f5472616e73616374696f6e206661696c65642e00000000000000000000000000600082015250565b6000612217601383611d8e565b9150612222826121e1565b602082019050919050565b600060208201905081810360008301526122468161220a565b9050919050565b7f4f776e61626c653a206e6577206f776e657220697320746865207a65726f206160008201527f6464726573730000000000000000000000000000000000000000000000000000602082015250565b60006122a9602683611d8e565b91506122b48261224d565b604082019050919050565b600060208201905081810360008301526122d88161229c565b9050919050565b7f4f776e61626c653a2063616c6c6572206973206e6f7420746865206f776e6572600082015250565b6000612315602083611d8e565b9150612320826122df565b602082019050919050565b6000602082019050818103600083015261234481612308565b9050919050565b6000612356826118c2565b9150612361836118c2565b9250817fffffffffffffffffffffffffffffffffffffffffffffffffffffffffffffffff048311821515161561239a57612399611cb4565b5b828202905092915050565b7f4e487b7100000000000000000000000000000000000000000000000000000000600052601260045260246000fd5b60006123df826118c2565b91506123ea836118c2565b9250826123fa576123f96123a5565b5b82820490509291505056fea26469706673582212207c4360ce49d7196c2d4c2f2a41ab0c852704edd1971ae5cbc47954cae5f693c064736f6c634300080f0033",
  "immutableReferences": {},
  "source": "// SPDX-License-Identifier: GPL-3.0\r\npragma solidity ^0.8.0;\r\n\r\nimport \"@openzeppelin/contracts/security/ReentrancyGuard.sol\";\r\nimport \"@openzeppelin/contracts/token/ERC20/ERC20.sol\";\r\nimport \"@openzeppelin/contracts/access/Ownable.sol\";\r\nimport \"@openzeppelin/contracts/utils/math/SafeMath.sol\";\r\n\r\ncontract Crowdsale is Ownable {\r\n    using SafeMath for uint256;\r\n\r\n    struct InvestorInfor {\r\n        uint256 totalDeposit;\r\n        uint256 totalClaim;\r\n        uint256 totalClaimed;\r\n    }\r\n\r\n\r\n\r\n    /**\r\n    @title CREATE AND DEFINE MAIN VARIABLE\r\n    */   \r\n    /// @dev funding wallet. Address will receive usdt return.\r\n    address payable fundingWallet; \r\n    /// @dev address holding token\r\n    address tokenAress; \r\n    /// @dev address holding usdt\r\n    address usdtAddress; \r\n    uint256 public constant decimals = 18; // constant decimals\r\n    /// @dev checking investor is accepted to buy token\r\n    mapping(address => bool) public isInvestor; \r\n    /// @dev list address => info of address's investor\r\n    mapping(address => InvestorInfor) public investorInfor; \r\n\r\n\r\n\r\n    /**\r\n    @title CREATE AND DEFINE FUNCTIONALITY VARIABLES IN CONTRACTS \r\n     */\r\n    /// @dev set amount of token for Crowdsale: 50,000,000\r\n    uint256 public constant crowdsaleAmount = 50000000 * (10**18);\r\n    /// @dev set token price: 0.01 usdt\r\n    uint256 public constant tokenPrice = 1 * 10**(-2) * (10**18);\r\n    /// @dev set minimum deposit: 100 USDT \r\n    uint256 public constant minDeposit = 100 * (10**18);\r\n    /// @dev set maximum deposit: 500 USDT\r\n    uint256 public constant maxDeposit = 500 * (10**18);\r\n    /**\r\n    @dev Token remaining. \r\n    @dev Set initial value is equal to crowdsaleAmount. \r\n    @dev During the crowdsale, tokenRemaining is decrease.\r\n     */ \r\n    uint256 public tokenRemaining = crowdsaleAmount;\r\n    /**\r\n    @dev Total raised.\r\n    @dev Set initial value is equal to 0.\r\n    @dev During the crowdsale, the raised money(USDT) is increase\r\n     */\r\n    uint256 totalRaised = 0;\r\n\r\n\r\n\r\n    /**\r\n    @title CROWDSALE TIMING AND VESTING TIMING\r\n     */\r\n    /// @dev Open crowdsale time (depends on testing case)\r\n    uint256 public openCrowdsale;\r\n    /// @dev Close crowdsale time (depends on testing case)\r\n    uint256 public closeCrowdsale;\r\n    /// @dev time to start release token to investor (depends on testing case)\r\n    uint256 public releaseTime;\r\n    /// @dev cliff period: 10 minutes.\r\n    uint256 public constant cliffTime = 10 minutes;\r\n\r\n    enum VestingStages {\r\n        TGE,\r\n        P2,\r\n        P3,\r\n        P4,\r\n        P5\r\n    }\r\n\r\n    /// @dev how many percent of tokens is released per stage.\r\n    mapping(VestingStages => uint256) public unlockPercentTokenPerStage;\r\n    /// @dev which time to release token per stage.\r\n    mapping(VestingStages => uint256) public releaseDatePerStage;\r\n\r\n    /// @notice define constructor \r\n    constructor(\r\n        address payable _fundingWallet,\r\n        address _tokenAddress,\r\n        address _usdtAddress\r\n    ) {\r\n        fundingWallet = _fundingWallet;\r\n        tokenAress = _tokenAddress;\r\n        usdtAddress = _usdtAddress;\r\n\r\n        setUpVestingPlan();\r\n    }\r\n\r\n    /**\r\n    @notice the function to set up logic to Vesting plan.\r\n    @dev set how many percent of amount of token is released per stage.\r\n    @dev set when each stage start\r\n     */\r\n    function setUpVestingPlan() internal onlyOwner {\r\n        uint256 firstTimeListingToken = releaseTime;\r\n\r\n        unlockPercentTokenPerStage[VestingStages.TGE] = 20;\r\n        unlockPercentTokenPerStage[VestingStages.P2] = 40;\r\n        unlockPercentTokenPerStage[VestingStages.P3] = 60;\r\n        unlockPercentTokenPerStage[VestingStages.P4] = 80;\r\n        unlockPercentTokenPerStage[VestingStages.P5] = 100;\r\n\r\n\r\n        unlockPercentTokenPerStage[VestingStages.TGE] = firstTimeListingToken;\r\n        unlockPercentTokenPerStage[VestingStages.P2] = firstTimeListingToken + cliffTime * 1; \r\n        unlockPercentTokenPerStage[VestingStages.P3] = firstTimeListingToken + cliffTime * 2;\r\n        unlockPercentTokenPerStage[VestingStages.P4] = firstTimeListingToken + cliffTime * 3;\r\n        unlockPercentTokenPerStage[VestingStages.P5] = firstTimeListingToken + cliffTime * 4;\r\n    }\r\n\r\n\r\n\r\n    /**\r\n    @title SET FUNCTION\r\n     */\r\n    \r\n    /**\r\n    @notice set token address.\r\n    @param _tokenAddress a address's wallet is holding the amount of token.\r\n     */\r\n    function setTokenAddress(address _tokenAddress) public onlyOwner {\r\n        tokenAress = _tokenAddress;\r\n    }\r\n\r\n    /**\r\n    @notice set funding wallet.\r\n    @param _fundingWallet the address's wallet is set to the funding wallet.\r\n     */\r\n    function setFundingWallet(address payable _fundingWallet) public onlyOwner {\r\n        fundingWallet = _fundingWallet;\r\n    }\r\n\r\n\r\n\r\n    /**\r\n    @title INVESTOR LIST: ADD AND REMOVE AN ADDRESS'S INVESTOR TO THE LIST\r\n     */\r\n\r\n    /**\r\n    @notice create and define a function to add investor into a valid list from an array.\r\n    @param _addressArr an array store a list of address's investor\r\n     */ \r\n    function addInvestors(address[] memory _addressArr) public onlyOwner {\r\n        for(uint256 index = 0; index <_addressArr.length; index++) {\r\n            address currentAddress = _addressArr[index];\r\n            isInvestor[currentAddress] = true;\r\n        } \r\n    }\r\n\r\n    /**\r\n    @notice remove an investor from the lsit\r\n    @param _addressInvestor an address's investor is needed to remove\r\n     */\r\n    function removeInvestors(address _addressInvestor) public onlyOwner {\r\n        isInvestor[_addressInvestor] = false;\r\n    }\r\n\r\n\r\n\r\n    /**\r\n    @notice deposit amountUSDT of USDT to buy token\r\n    @param amountUSDT the amountUSDT of USDT is deposited \r\n     */\r\n    function depositUSDT(uint256 amountUSDT) public {\r\n        uint256 pointTimestamp = block.timestamp;\r\n\r\n        // checking crowdsale is opening\r\n        require(isOpenCrowdsale(pointTimestamp), \"Crowdsale does not open.\");\r\n\r\n        // checking the address that calls this function is a valid investor\r\n        require(isInvestor[msg.sender], \"Invalid Investor\");\r\n\r\n        // Checking minimum and maximun value deposit\r\n        require(amountUSDT >= minDeposit, \"Your value deposit is smaller than minimum deposit\");\r\n        require(amountUSDT <= maxDeposit, \"Your value deposit is greater than maximun deposit\");\r\n\r\n        // Calculate the amount of token investor can receive \r\n        uint256 amountOfTokenInvestorReceive = amountUSDT.div(tokenPrice).mul(10**18);\r\n        require(amountOfTokenInvestorReceive <= tokenRemaining, \"Not enough Token for depositing\");\r\n\r\n\r\n        /**\r\n        @dev UPDATING DATA AFTER EACH DEPOSIT AND BUY TOKEN\r\n         */\r\n        // update investor's information\r\n        investorInfor[msg.sender].totalDeposit += amountUSDT;\r\n        investorInfor[msg.sender].totalClaim += amountOfTokenInvestorReceive;\r\n\r\n        // update remaining token \r\n        tokenRemaining -= amountOfTokenInvestorReceive;\r\n        // update raised token\r\n        totalRaised += amountUSDT;\r\n\r\n\r\n        // Transder amountUSDT from address's investor to funding wallet\r\n        // checking success of that process\r\n        bool transferUSDTSuccess = ERC20(usdtAddress).transferFrom(msg.sender, fundingWallet, amountUSDT);\r\n        require(transferUSDTSuccess, \"Transaction failed.\");\r\n    }\r\n\r\n    /**\r\n    @notice checking crowdsale is opening\r\n    @param _pointTimestamp the time that block is created \r\n     */\r\n    function isOpenCrowdsale(uint256 _pointTimestamp) public view returns (bool) {\r\n        return (_pointTimestamp > openCrowdsale) && (_pointTimestamp < closeCrowdsale);\r\n    }\r\n\r\n    /**\r\n    @notice claimimg token process \r\n     */\r\n    function claimTokens() public {\r\n        uint256 pointTimestamp = block.timestamp;\r\n\r\n        // checking crowdsale is opening\r\n        require(isOpenClaimingProcess(pointTimestamp), \"Crowdsale does not open.\");\r\n\r\n        // checking the address that calls this function is a valid investor\r\n        require(isInvestor[msg.sender], \"Invalid Investor\");\r\n\r\n        // checking the amount of available token can claim\r\n        uint256 availableTokenCanClaim = calculateTokenCanClaim(msg.sender);\r\n        require(availableTokenCanClaim > 0, \"There is no Tokens\");\r\n\r\n        // updating total claimed for investor\r\n        investorInfor[msg.sender].totalClaimed += availableTokenCanClaim;\r\n\r\n        // send token to investor \r\n        // checking success of that process\r\n        bool transferTokenSuccess = ERC20(tokenAress).transfer(msg.sender, availableTokenCanClaim);\r\n        require(transferTokenSuccess);\r\n    }\r\n\r\n    /**\r\n    @notice checking claiming process is opening\r\n     */\r\n    function isOpenClaimingProcess(uint256 _pointTimestamp) public view returns (bool) {\r\n        return _pointTimestamp > releaseTime;\r\n    }\r\n\r\n    /**\r\n    @notice checking the amount of token can be claimed by investor\r\n    @param _addressInvestor the address of investor needs to check the amount of token can be claimed\r\n     */\r\n    function calculateTokenCanClaim(address _addressInvestor) public view returns (uint256) {\r\n        // get total unlocked token of the address's investor\r\n        uint256 totalUnlockedToken = getUnlockedAmountToken(_addressInvestor);\r\n        // calculate the available remaining token that investor can claim\r\n        return totalUnlockedToken - investorInfor[_addressInvestor].totalClaimed;\r\n    }   \r\n\r\n    /**\r\n    @notice get the amount of unlocked token\r\n    @param _addressInvestor the address;s investor \r\n     */\r\n    function getUnlockedAmountToken(address _addressInvestor) internal view returns (uint256) {\r\n        // get index of the vesting stage\r\n        uint256 vestingStageIndex = getVestingStageIndex();\r\n\r\n        return (vestingStageIndex == 100) ? 0 : investorInfor[_addressInvestor].totalClaim.mul(unlockPercentTokenPerStage[VestingStages(vestingStageIndex)]).div(100);\r\n    }\r\n\r\n    /**\r\n    @notice get vesting stage index timestamp\r\n     */\r\n    function getVestingStageIndex() public view returns (uint256) {\r\n        uint256 pointTimestamp = block.timestamp;\r\n\r\n        if(pointTimestamp < releaseDatePerStage[VestingStages(0)]) {\r\n            return 100;\r\n        } else {\r\n            for(uint256 index = 1; index <= 4; index++) {\r\n                if(pointTimestamp < releaseDatePerStage[VestingStages(index)]) {\r\n                    return index - 1;\r\n                }\r\n            }\r\n        }\r\n\r\n        return 4;\r\n    }\r\n\r\n    /**\r\n    @title GET FUNCTION - INEVESTOR'S INFORMATION\r\n     */\r\n\r\n    /**\r\n    @notice get total deposit of investor \r\n    @param _addressInvestor the address of investor\r\n     */\r\n    function getTotalDeposit(address _addressInvestor) public view returns (uint256) {\r\n        return investorInfor[_addressInvestor].totalDeposit;\r\n    }\r\n\r\n    /**\r\n    @notice get total claim: total amount token can be claimed of investor\r\n    @param _addressInvestor the address of investor\r\n     */\r\n    function getTotalClaim(address _addressInvestor) public view returns (uint256) {\r\n        return investorInfor[_addressInvestor].totalClaim;\r\n    }\r\n\r\n    /**\r\n    @notice get total claimed: total amount token is claimed by investor\r\n    @param _addressInvestor the address of investor\r\n     */\r\n    function getTotalClaimed(address _addressInvestor) public view returns (uint256) {\r\n        return investorInfor[_addressInvestor].totalClaimed;\r\n    }\r\n\r\n    /**\r\n    @notice get the amount remaining token\r\n    @param _addressInvestor the address of investor\r\n     */\r\n    function getRemainingToken(address _addressInvestor) public view returns (uint256) {\r\n        return investorInfor[_addressInvestor].totalClaim - investorInfor[_addressInvestor].totalClaimed;\r\n    }\r\n\r\n\r\n\r\n    /**\r\n    @title SET FUNCTION: UPDATING TIME CROWDSALE INFORMATION\r\n     */\r\n\r\n    /**\r\n    @notice set open and close time crowdsale\r\n    @param _openCrowdsale the time to crowdsale start\r\n    @param _closeCrowdsale the time to crowdsale close\r\n     */\r\n    function _setTimedCrowdsale(uint256 _openCrowdsale, uint256 _closeCrowdsale) public onlyOwner {\r\n        require(_openCrowdsale < _closeCrowdsale);\r\n\r\n        openCrowdsale = _openCrowdsale;\r\n        closeCrowdsale = _closeCrowdsale;\r\n    }\r\n\r\n    /**\r\n    @notice set release time: claiming process start\r\n    @param _releaseTime the time to claiming process start\r\n     */\r\n    function _setReleaseTime(uint256 _releaseTime) public onlyOwner {\r\n        require(closeCrowdsale < _releaseTime);\r\n\r\n        releaseTime = _releaseTime;\r\n\r\n        setUpVestingPlan();\r\n    }\r\n\r\n\r\n\r\n\r\n}",
  "sourcePath": "D:\\Information Technology\\Blockchain - Smart Contract\\HOBiToken_Official_Ver\\contracts\\Crowdsale.sol",
  "compiler": {
    "name": "solc",
    "version": "0.8.15+commit.e14f2714.Emscripten.clang"
  },
  "schemaVersion": "3.4.8",
  "updatedAt": "2022-08-06T10:14:27.519Z",
  "devdoc": {
    "kind": "dev",
    "methods": {
      "_setReleaseTime(uint256)": {
        "params": {
          "_releaseTime": "the time to claiming process start"
        }
      },
      "_setTimedCrowdsale(uint256,uint256)": {
        "params": {
          "_closeCrowdsale": "the time to crowdsale close",
          "_openCrowdsale": "the time to crowdsale start"
        }
      },
      "addInvestors(address[])": {
        "params": {
          "_addressArr": "an array store a list of address's investor"
        }
      },
      "calculateTokenCanClaim(address)": {
        "params": {
          "_addressInvestor": "the address of investor needs to check the amount of token can be claimed"
        }
      },
      "depositUSDT(uint256)": {
        "params": {
          "amountUSDT": "the amountUSDT of USDT is deposited "
        }
      },
      "getRemainingToken(address)": {
        "params": {
          "_addressInvestor": "the address of investor"
        }
      },
      "getTotalClaim(address)": {
        "params": {
          "_addressInvestor": "the address of investor"
        }
      },
      "getTotalClaimed(address)": {
        "params": {
          "_addressInvestor": "the address of investor"
        }
      },
      "getTotalDeposit(address)": {
        "params": {
          "_addressInvestor": "the address of investor"
        }
      },
      "isOpenCrowdsale(uint256)": {
        "params": {
          "_pointTimestamp": "the time that block is created "
        }
      },
      "owner()": {
        "details": "Returns the address of the current owner."
      },
      "removeInvestors(address)": {
        "params": {
          "_addressInvestor": "an address's investor is needed to remove"
        }
      },
      "renounceOwnership()": {
        "details": "Leaves the contract without owner. It will not be possible to call `onlyOwner` functions anymore. Can only be called by the current owner. NOTE: Renouncing ownership will leave the contract without an owner, thereby removing any functionality that is only available to the owner."
      },
      "setFundingWallet(address)": {
        "params": {
          "_fundingWallet": "the address's wallet is set to the funding wallet."
        }
      },
      "setTokenAddress(address)": {
        "params": {
          "_tokenAddress": "a address's wallet is holding the amount of token."
        }
      },
      "transferOwnership(address)": {
        "details": "Transfers ownership of the contract to a new account (`newOwner`). Can only be called by the current owner."
      }
    },
    "stateVariables": {
      "cliffTime": {
        "details": "cliff period: 10 minutes."
      },
      "closeCrowdsale": {
        "details": "Close crowdsale time (depends on testing case)"
      },
      "crowdsaleAmount": {
        "details": "set amount of token for Crowdsale: 50,000,000"
      },
      "fundingWallet": {
        "details": "funding wallet. Address will receive usdt return."
      },
      "investorInfor": {
        "details": "list address => info of address's investor"
      },
      "isInvestor": {
        "details": "checking investor is accepted to buy token"
      },
      "maxDeposit": {
        "details": "set maximum deposit: 500 USDT"
      },
      "minDeposit": {
        "details": "set minimum deposit: 100 USDT "
      },
      "openCrowdsale": {
        "details": "Open crowdsale time (depends on testing case)"
      },
      "releaseDatePerStage": {
        "details": "which time to release token per stage."
      },
      "releaseTime": {
        "details": "time to start release token to investor (depends on testing case)"
      },
      "tokenAress": {
        "details": "address holding token"
      },
      "tokenPrice": {
        "details": "set token price: 0.01 usdt"
      },
      "tokenRemaining": {
        "details": "Token remaining. Set initial value is equal to crowdsaleAmount. During the crowdsale, tokenRemaining is decrease."
      },
      "totalRaised": {
        "details": "Total raised.Set initial value is equal to 0.During the crowdsale, the raised money(USDT) is increase"
      },
      "unlockPercentTokenPerStage": {
        "details": "how many percent of tokens is released per stage."
      },
      "usdtAddress": {
        "details": "address holding usdt"
      }
    },
    "version": 1
  },
  "userdoc": {
    "kind": "user",
    "methods": {
      "_setReleaseTime(uint256)": {
        "notice": "set release time: claiming process start"
      },
      "_setTimedCrowdsale(uint256,uint256)": {
        "notice": "set open and close time crowdsale"
      },
      "addInvestors(address[])": {
        "notice": "create and define a function to add investor into a valid list from an array."
      },
      "calculateTokenCanClaim(address)": {
        "notice": "checking the amount of token can be claimed by investor"
      },
      "claimTokens()": {
        "notice": "claimimg token process "
      },
      "constructor": {
        "notice": "define constructor "
      },
      "depositUSDT(uint256)": {
        "notice": "deposit amountUSDT of USDT to buy token"
      },
      "getRemainingToken(address)": {
        "notice": "get the amount remaining token"
      },
      "getTotalClaim(address)": {
        "notice": "get total claim: total amount token can be claimed of investor"
      },
      "getTotalClaimed(address)": {
        "notice": "get total claimed: total amount token is claimed by investor"
      },
      "getTotalDeposit(address)": {
        "notice": "get total deposit of investor "
      },
      "getVestingStageIndex()": {
        "notice": "get vesting stage index timestamp"
      },
      "isOpenClaimingProcess(uint256)": {
        "notice": "checking claiming process is opening"
      },
      "isOpenCrowdsale(uint256)": {
        "notice": "checking crowdsale is opening"
      },
      "removeInvestors(address)": {
        "notice": "remove an investor from the lsit"
      },
      "setFundingWallet(address)": {
        "notice": "set funding wallet."
      },
      "setTokenAddress(address)": {
        "notice": "set token address."
      }
    },
    "version": 1
  }
}